{
  "_format": "hh-sol-artifact-1",
  "contractName": "OrbitLiquidator",
  "sourceName": "contracts/OrbitLiquidator.sol",
  "abi": [
    {
      "inputs": [],
      "stateMutability": "nonpayable",
      "type": "constructor"
    },
    {
      "inputs": [
        {
          "internalType": "address",
          "name": "owner",
          "type": "address"
        }
      ],
      "name": "OwnableInvalidOwner",
      "type": "error"
    },
    {
      "inputs": [
        {
          "internalType": "address",
          "name": "account",
          "type": "address"
        }
      ],
      "name": "OwnableUnauthorizedAccount",
      "type": "error"
    },
    {
      "anonymous": false,
      "inputs": [
        {
          "indexed": true,
          "internalType": "address",
          "name": "previousOwner",
          "type": "address"
        },
        {
          "indexed": true,
          "internalType": "address",
          "name": "newOwner",
          "type": "address"
        }
      ],
      "name": "OwnershipTransferred",
      "type": "event"
    },
    {
      "inputs": [],
      "name": "SPACE_STATION",
      "outputs": [
        {
          "internalType": "address",
          "name": "",
          "type": "address"
        }
      ],
      "stateMutability": "view",
      "type": "function"
    },
    {
      "inputs": [
        {
          "internalType": "address",
          "name": "account",
          "type": "address"
        }
      ],
      "name": "getAccountDetails",
      "outputs": [
        {
          "internalType": "address[]",
          "name": "oTokens",
          "type": "address[]"
        },
        {
          "internalType": "uint256[]",
          "name": "borrowBalanceUsd",
          "type": "uint256[]"
        },
        {
          "internalType": "uint256[]",
          "name": "tokenBalanceUsd",
          "type": "uint256[]"
        },
        {
          "internalType": "uint256[2]",
          "name": "liquidityData",
          "type": "uint256[2]"
        }
      ],
      "stateMutability": "view",
      "type": "function"
    },
    {
      "inputs": [
        {
          "internalType": "address",
          "name": "oToken",
          "type": "address"
        }
      ],
      "name": "getUnderlyingPrice",
      "outputs": [
        {
          "internalType": "uint256",
          "name": "",
          "type": "uint256"
        }
      ],
      "stateMutability": "view",
      "type": "function"
    },
    {
      "inputs": [
        {
          "internalType": "address",
          "name": "target",
          "type": "address"
        },
        {
          "internalType": "address",
          "name": "borrower",
          "type": "address"
        },
        {
          "internalType": "address",
          "name": "collateral",
          "type": "address"
        },
        {
          "internalType": "uint256",
          "name": "value",
          "type": "uint256"
        }
      ],
      "name": "liquidate",
      "outputs": [
        {
          "internalType": "uint256",
          "name": "profitUsd",
          "type": "uint256"
        }
      ],
      "stateMutability": "nonpayable",
      "type": "function"
    },
    {
      "inputs": [],
      "name": "oETH",
      "outputs": [
        {
          "internalType": "address",
          "name": "",
          "type": "address"
        }
      ],
      "stateMutability": "view",
      "type": "function"
    },
    {
      "inputs": [],
      "name": "owner",
      "outputs": [
        {
          "internalType": "address",
          "name": "",
          "type": "address"
        }
      ],
      "stateMutability": "view",
      "type": "function"
    },
    {
      "inputs": [],
      "name": "renounceOwnership",
      "outputs": [],
      "stateMutability": "nonpayable",
      "type": "function"
    },
    {
      "inputs": [
        {
          "internalType": "address",
          "name": "newOwner",
          "type": "address"
        }
      ],
      "name": "transferOwnership",
      "outputs": [],
      "stateMutability": "nonpayable",
      "type": "function"
    },
    {
      "inputs": [],
      "name": "withdrawAllEth",
      "outputs": [],
      "stateMutability": "nonpayable",
      "type": "function"
    },
    {
      "inputs": [
        {
          "internalType": "address",
          "name": "token",
          "type": "address"
        }
      ],
      "name": "withdrawAllTokens",
      "outputs": [],
      "stateMutability": "nonpayable",
      "type": "function"
    },
    {
      "inputs": [
        {
          "internalType": "uint256",
          "name": "amount",
          "type": "uint256"
        }
      ],
      "name": "withdrawEth",
      "outputs": [],
      "stateMutability": "nonpayable",
      "type": "function"
    },
    {
      "inputs": [
        {
          "internalType": "address",
          "name": "token",
          "type": "address"
        },
        {
          "internalType": "uint256",
          "name": "amount",
          "type": "uint256"
        }
      ],
      "name": "withdrawTokens",
      "outputs": [],
      "stateMutability": "nonpayable",
      "type": "function"
    },
    {
      "stateMutability": "payable",
      "type": "receive"
    }
  ],
  "bytecode": "0x6080604052600180546001600160a01b0319908116731e18c3cb491d908241d0db14b081b51be7b6e6521790915560028054909116730872b71efc37cb8dde22b2118de3d800427fdba017905534801561005857600080fd5b50338061007f57604051631e4fbdf760e01b81526000600482015260240160405180910390fd5b6100888161008e565b506100de565b600080546001600160a01b038381166001600160a01b0319831681178455604051919092169283917f8be0079c531659141344cd1fd0a4f28419497f9722a3daafe3b4186f6b6457e09190a35050565b61137f806100ed6000396000f3fe6080604052600436106100ab5760003560e01c80638da5cb5b116100645780638da5cb5b14610194578063a878aee6146101b2578063aab3f868146101d2578063c311d04914610200578063f2fde38b14610220578063fc57d4df1461024057600080fd5b806306b091f9146100b75780632aceb534146100d95780634e6c976614610112578063519af30e1461014a57806353c16a4b1461015f578063715018a61461017f57600080fd5b366100b257005b600080fd5b3480156100c357600080fd5b506100d76100d2366004610f9c565b610260565b005b3480156100e557600080fd5b506100f96100f4366004610fc8565b6103bc565b6040516101099493929190611021565b60405180910390f35b34801561011e57600080fd5b50600254610132906001600160a01b031681565b6040516001600160a01b039091168152602001610109565b34801561015657600080fd5b506100d761075a565b34801561016b57600080fd5b50600154610132906001600160a01b031681565b34801561018b57600080fd5b506100d7610813565b3480156101a057600080fd5b506000546001600160a01b0316610132565b3480156101be57600080fd5b506100d76101cd366004610fc8565b610827565b3480156101de57600080fd5b506101f26101ed3660046110c0565b6108bd565b604051908152602001610109565b34801561020c57600080fd5b506100d761021b366004611111565b610d44565b34801561022c57600080fd5b506100d761023b366004610fc8565b610dae565b34801561024c57600080fd5b506101f261025b366004610fc8565b610dec565b610268610dfd565b6040516370a0823160e01b815230600482015281906001600160a01b038416906370a0823190602401602060405180830381865afa1580156102ae573d6000803e3d6000fd5b505050506040513d601f19601f820116820180604052508101906102d2919061112a565b10156103255760405162461bcd60e51b815260206004820152601b60248201527f496e73756666696369656e7420746f6b656e2062616c616e636521000000000060448201526064015b60405180910390fd5b816001600160a01b031663a9059cbb6103466000546001600160a01b031690565b6040516001600160e01b031960e084901b1681526001600160a01b039091166004820152602481018490526044016020604051808303816000875af1158015610393573d6000803e3d6000fd5b505050506040513d601f19601f820116820180604052508101906103b79190611143565b505050565b60608060606103c9610f69565b600154604051632aff3bff60e21b81526001600160a01b0387811660048301529091169063abfceffc90602401600060405180830381865afa158015610413573d6000803e3d6000fd5b505050506040513d6000823e601f3d908101601f1916820160405261043b919081019061118b565b9350835167ffffffffffffffff81111561045757610457611165565b604051908082528060200260200182016040528015610480578160200160208202803683370190505b509250835167ffffffffffffffff81111561049d5761049d611165565b6040519080825280602002602001820160405280156104c6578160200160208202803683370190505b50915060005b845181101561067c576000806000808885815181106104ed576104ed611250565b60209081029190910101516040516361bfb47160e11b81526001600160a01b038c811660048301529091169063c37f68e290602401608060405180830381865afa15801561053f573d6000803e3d6000fd5b505050506040513d601f19601f820116820180604052508101906105639190611266565b9350935093509350836000146105bb5760405162461bcd60e51b815260206004820152601960248201527f6765744163636f756e74536e617073686f74206572726f722100000000000000604482015260640161031c565b60006105df8a87815181106105d2576105d2611250565b6020026020010151610e2a565b9050670de0b6b3a764000081816105f685886112b2565b61060091906112c9565b61060a91906112b2565b61061491906112c9565b88878151811061062657610626611250565b6020908102919091010152670de0b6b3a764000061064482856112b2565b61064e91906112c9565b89878151811061066057610660611250565b60209081029190910101525050600190930192506104cc915050565b50600154604051635ec88c7960e01b81526001600160a01b0387811660048301526000928392839290911690635ec88c7990602401606060405180830381865afa1580156106ce573d6000803e3d6000fd5b505050506040513d601f19601f820116820180604052508101906106f291906112eb565b925092509250826000146107485760405162461bcd60e51b815260206004820152601960248201527f6765744163636f756e744c6971756964697479206572726f7200000000000000604482015260640161031c565b90835260208301525092949193509190565b610762610dfd565b4760006107776000546001600160a01b031690565b6001600160a01b03168260405160006040518083038185875af1925050503d80600081146107c1576040519150601f19603f3d011682016040523d82523d6000602084013e6107c6565b606091505b505090508061080f5760405162461bcd60e51b81526020600482015260156024820152744661696c656420746f2073656e642045746865722160581b604482015260640161031c565b5050565b61081b610dfd565b6108256000610f19565b565b61082f610dfd565b6040516370a0823160e01b81523060048201526000906001600160a01b038316906370a0823190602401602060405180830381865afa158015610876573d6000803e3d6000fd5b505050506040513d601f19601f8201168201806040525081019061089a919061112a565b9050816001600160a01b031663a9059cbb6103466000546001600160a01b031690565b604051633af9e66960e01b815230600482015260009081906001600160a01b03851690633af9e669906024016020604051808303816000875af1158015610908573d6000803e3d6000fd5b505050506040513d601f19601f8201168201806040525081019061092c919061112a565b6002549091506001600160a01b03908116908716036109ff57824710156109955760405162461bcd60e51b815260206004820152601b60248201527f496e73756666696369656e742065746865722062616c616e6365210000000000604482015260640161031c565b604051635572051560e11b81526001600160a01b038681166004830152858116602483015287169063aae40a2a9085906044016000604051808303818588803b1580156109e157600080fd5b505af11580156109f5573d6000803e3d6000fd5b5050505050610c52565b6000866001600160a01b0316636f307dc36040518163ffffffff1660e01b8152600401602060405180830381865afa158015610a3f573d6000803e3d6000fd5b505050506040513d601f19601f82011682018060405250810190610a639190611319565b6040516370a0823160e01b815230600482015290915084906001600160a01b038316906370a0823190602401602060405180830381865afa158015610aac573d6000803e3d6000fd5b505050506040513d601f19601f82011682018060405250810190610ad0919061112a565b1015610b1e5760405162461bcd60e51b815260206004820152601b60248201527f496e73756666696369656e7420746f6b656e2062616c616e6365210000000000604482015260640161031c565b60405163095ea7b360e01b81526001600160a01b0388811660048301526024820186905282169063095ea7b3906044016020604051808303816000875af1158015610b6d573d6000803e3d6000fd5b505050506040513d601f19601f82011682018060405250810190610b919190611143565b50604051637af1e23160e11b81526001600160a01b03878116600483015260248201869052868116604483015288169063f5e3c462906064016020604051808303816000875af1158015610be9573d6000803e3d6000fd5b505050506040513d601f19601f82011682018060405250810190610c0d919061112a565b15610c505760405162461bcd60e51b81526020600482015260136024820152724661696c6564206c69717569646174696e672160681b604482015260640161031c565b505b604051633af9e66960e01b81523060048201526000906001600160a01b03861690633af9e669906024016020604051808303816000875af1158015610c9b573d6000803e3d6000fd5b505050506040513d601f19601f82011682018060405250810190610cbf919061112a565b90506000610ccc86610e2a565b90506000610cda8484611336565b9050670de0b6b3a7640000610cef83836112b2565b610cf991906112c9565b945060008511610d385760405162461bcd60e51b815260206004820152600a6024820152694e6f2070726f6669742160b01b604482015260640161031c565b50505050949350505050565b610d4c610dfd565b80471015610d9c5760405162461bcd60e51b815260206004820152601b60248201527f496e73756666696369656e742065746865722062616c616e6365210000000000604482015260640161031c565b600080546001600160a01b0316610777565b610db6610dfd565b6001600160a01b038116610de057604051631e4fbdf760e01b81526000600482015260240161031c565b610de981610f19565b50565b6000610df782610e2a565b92915050565b6000546001600160a01b031633146108255760405163118cdaa760e01b815233600482015260240161031c565b600080600160009054906101000a90046001600160a01b03166001600160a01b0316637dc0d1d06040518163ffffffff1660e01b8152600401602060405180830381865afa158015610e80573d6000803e3d6000fd5b505050506040513d601f19601f82011682018060405250810190610ea49190611319565b60405163fc57d4df60e01b81526001600160a01b0385811660048301529192509082169063fc57d4df90602401602060405180830381865afa158015610eee573d6000803e3d6000fd5b505050506040513d601f19601f82011682018060405250810190610f12919061112a565b9392505050565b600080546001600160a01b038381166001600160a01b0319831681178455604051919092169283917f8be0079c531659141344cd1fd0a4f28419497f9722a3daafe3b4186f6b6457e09190a35050565b60405180604001604052806002906020820280368337509192915050565b6001600160a01b0381168114610de957600080fd5b60008060408385031215610faf57600080fd5b8235610fba81610f87565b946020939093013593505050565b600060208284031215610fda57600080fd5b8135610f1281610f87565b60008151808452602080850194506020840160005b8381101561101657815187529582019590820190600101610ffa565b509495945050505050565b60a0808252855190820181905260009060209060c0840190828901845b828110156110635781516001600160a01b03168452928401929084019060010161103e565b505050838103828501526110778188610fe5565b9050838103604085015261108b8187610fe5565b925050606083018460005b60028110156110b357815183529183019190830190600101611096565b5050505095945050505050565b600080600080608085870312156110d657600080fd5b84356110e181610f87565b935060208501356110f181610f87565b9250604085013561110181610f87565b9396929550929360600135925050565b60006020828403121561112357600080fd5b5035919050565b60006020828403121561113c57600080fd5b5051919050565b60006020828403121561115557600080fd5b81518015158114610f1257600080fd5b634e487b7160e01b600052604160045260246000fd5b805161118681610f87565b919050565b6000602080838503121561119e57600080fd5b825167ffffffffffffffff808211156111b657600080fd5b818501915085601f8301126111ca57600080fd5b8151818111156111dc576111dc611165565b8060051b604051601f19603f8301168101818110858211171561120157611201611165565b60405291825284820192508381018501918883111561121f57600080fd5b938501935b82851015611244576112358561117b565b84529385019392850192611224565b98975050505050505050565b634e487b7160e01b600052603260045260246000fd5b6000806000806080858703121561127c57600080fd5b505082516020840151604085015160609095015191969095509092509050565b634e487b7160e01b600052601160045260246000fd5b8082028115828204841417610df757610df761129c565b6000826112e657634e487b7160e01b600052601260045260246000fd5b500490565b60008060006060848603121561130057600080fd5b8351925060208401519150604084015190509250925092565b60006020828403121561132b57600080fd5b8151610f1281610f87565b81810381811115610df757610df761129c56fea26469706673582212206b69489878cc4dcac130ebe57b0a58407c9a47bd2f566f6d097ca92379257edf64736f6c63430008180033",
  "linkReferences": {},
  "deployedLinkReferences": {}
}